:040000003BEF00F0E2
:100008003E82FACF3AF0FBCF3BF0A0A60EEF00F00D
:1000180010EF00F025EF00F0A1A615EF00F017EFA4
:1000280000F025EF00F002D823EF00F00500FA6E8B
:100038002F50FD6E3050FE6EFF6AFA50120035EFF9
:1000480000F09DA62AEF00F02CEF00F035EF00F04D
:100058009EA631EF00F033EF00F035EF00F017EF18
:1000680000F03BC0FBFF3AC0FAFF3E921100CFEF11
:0200780008F08E
:0510000000256900005D
:10100600E1EC09F080EC09F00009D8B40DEF08F026
:101016000FEF08F021EF08F076EC09F00009D8B4DC
:1010260017EF08F019EF08F01DEF08F0010E336E08
:1010360061EF08F0020E336E61EF08F076EC09F00E
:101046000009D8B429EF08F02BEF08F02FEF08F0CD
:10105600030E336E61EF08F0040E336E61EF08F095
:101066002EEC09F062EC09F00009D8B43DEF08F067
:101076003FEF08F07EEF08F002EC09F07EEF08F093
:101086002EEC09F07EEF08F062EC09F00009D8B406
:101096004FEF08F051EF08F07EEF08F03FEF08F051
:1010A6006CEC09F00009D8B45BEF08F05DEF08F0CE
:1010B6007EEF08F018EC09F07EEF08F03350386E3A
:1010C600396A3950000AD8B46BEF08F07EEF08F0A1
:1010D6003850010AD8B433EF08F0030AD8B443EF06
:1010E60008F0010AD8B447EF08F0070AD8B453EF5E
:1010F60008F07EEF08F0DFEC09F0120053EC09F07F
:10110600080EC6EC09F07F0EC2EC09F0060E3C6E26
:10111600100E3D6EAFEC09F0000E3C6E000E3D6EFB
:10112600B4EC09F0940E3C6E130E3D6EA0EC09F083
:10113600A40E3C6E130E3D6EAAEC09F0AC0E3C6E8E
:10114600130E3D6EB9EC09F0000E3C6E000E3D6EBE
:10115600A5EC09F0DDEC09F012008AEC09F0F28E3C
:10116600F28CF28C81EC08F0B40E3C6E130E3D6EE0
:10117600AAEC09F0230E3264C3EF08F0C5EF08F0BD
:10118600C9EF08F08B808B92BDEF08F08B908B92A5
:10119600BDEF08F03BEF00F0880EF66E120EF76E0C
:1011A600000EF86E00EE01F010EE1EF00900F5CF0D
:1011B600EEFFE550E150FAE100EE1FF0180EEE6A80
:1011C600E806FDE13E903E920001B0EF08F0000E09
:1011D6008D6E000E8C6E000E896E000E8A6E000EED
:1011E6008B6E070E966E92689368FC0E946E9568E9
:1011F6007E681F0E7F6E000E7C6EF18E12002B50E5
:101206002C10D8B409EF09F00BEF09F017EF09F02D
:1012160002D817EF09F00500FA6E2B50FD6E2C5020
:10122600FE6EFF6AFA50120012002D502E10D8B42E
:101236001FEF09F021EF09F02DEF09F002D82DEF8D
:1012460009F00500FA6E2D50FD6E2E50FE6EFF6AF7
:10125600FA501200120029502A10D8B435EF09F0BE
:1012660037EF09F043EF09F002D843EF09F0050024
:10127600FA6E2950FD6E2A50FE6EFF6AFA50120071
:101286001200800F810F820F830F840F890F8A0F40
:101296008B0F8C0F8D0F920F930F940F950F960F48
:1012A600C6BA58EF09F05AEF09F061EF09F0800E5F
:1012B600C76E060EC612000EC56EC68A1200C7A0FD
:1012C60067EF09F06AEF09F0010E6BEF09F0000E07
:1012D6001200C7B071EF09F074EF09F0010E75EF57
:1012E60009F0000E1200C7B47BEF09F07EEF09F09B
:1012F600010E7FEF09F0000E1200C7AA85EF09F074
:1013060088EF09F0010E89EF09F0000E1200BEEC1D
:1013160009F093EC09F0EAEC08F09BEC09F01200F6
:10132600800EC76E060EC612000EC56EC69A120055
:10133600300ED36E000E9B6E12003CC02BF03DC0EB
:101346002CF012003CC025F03DC026F012003CC037
:101356002DF03DC02EF012003CC02FF03DC030F005
:1013660012003CC027F03DC028F012003CC029F016
:101376003DC02AF01200D08EA2869F8612003C6ED7
:101386003CC077FF12003C6E3CC0C8FF12003650CE
:10139600CEEC09F01200376E37C0C9FF1200E3EC3D
:1013A60009F0356E1200E3EC09F0346E1200C9CF75
:1013B60032F012009D861200C68812009E96120018
:0413C600C9501200F8
:020000040020DA
:08000000FFFFFFFFFFFFFFFF00
:020000040030CA
:0E000000FF021F1EFF8B85FF0FC00FE00F4099
:00000001FF
