:040000005BEF00F0C2
:100008005A82FACF12F0FBCF13F0D9CF14F0DACF1F
:1000180015F0F3CF16F0F4CF17F0F6CF18F0F7CFAE
:1000280019F0F8CF1AF0F5CF1BF0A0A61EEF00F0DC
:1000380020EF00F035EF00F0A1A625EF00F027EF44
:1000480000F035EF00F002D833EF00F00500FA6E4B
:100058005050FD6E5150FE6EFF6AFA50120045EF87
:1000680000F09DA63AEF00F03CEF00F045EF00F0FD
:100078009EA641EF00F043EF00F045EF00F027EFB8
:1000880000F01BC0F5FF1AC0F8FF19C0F7FF18C031
:10009800F6FF17C0F4FF16C0F3FF15C0DAFF14C04F
:1000A800D9FF13C0FBFF12C0FAFF5A9211004EEF9E
:0200B80010F046
:1010000000E025AA25BA251818DC18D425281B606D
:1010100026582650264826402638263026C825B28F
:101020001E3738392F3435362A3132332D23303DAF
:101030002B01000A006400E80310272D2D2D2D2D13
:101040002D2D2D2D2D2D2D2D2D2D2D2D2D2D2D2DD0
:101050002D2D2D0D0046616E206973204F4E20000E
:1010600046616E206973204F46460054656D703DA1
:10107000200054494D453A2000444154453A20004F
:10108000256900002A0E2F6EF5EF08F0250E3418A2
:10109000D8B44DEF08F04FEF08F057EF08F02850A4
:1010A000D96EDA6A34C0DFFF282AF5EF08F0000EA7
:1010B000306E292A29042E6E2EC0F6FF100EF76E10
:1010C000F86A0800F5CF34F03450000AD8B408EFBD
:1010D00009F0640AD8B473EF08F00D0AD8B473EFBE
:1010E00008F0F5EF08F02F50D96EDA6ADECF32F053
:1010F000DDCF33F0020E2F2633BE83EF08F081EFF1
:1011000008F089EF08F0030E3012326C331ED8B0AD
:10111000332A010E346E3450020DF350310F2E6E0F
:101120002EC0F6FF100EF76EF86A0900F550325C1B
:101130000900F5503358D8B0A0EF08F0A2EF08F03E
:10114000A4EF08F0AEEF08F0342A050E3418D8A446
:10115000ACEF08F0AEEF08F08BEF08F030C02EF0E7
:10116000030E2E16D8B4B7EF08F0B9EF08F0BFEFB2
:1011700008F02850D96EDA6A2D0EDF6E282A34C0A6
:1011800031F0ECEF08F03150020DF350310F2E6EBC
:101190002EC0F6FF100EF76EF86A0900F5CF1EF0AC
:1011A0000A00F5CF1FF032C01CF033C01DF048EC30
:1011B0000EF01CC023F01DC024F0000E266E0A0E97
:1011C000256EBFEC0FF02350300F346E2850D96ECF
:1011D000DA6A34C0DFFF282A31063128D8A4F3EFB9
:1011E00008F0F5EF08F0C3EF08F0292A29042E6E65
:1011F0002EC0F6FF100EF76EF86A0800F5CF34F037
:101200003450D8A406EF09F008EF09F046EF08F0D3
:101210002850D96EDA6ADF6A1200010E226E1C5065
:10122000D8B415EF09F017EF09F027EF09F01C50BB
:10123000D96EDA6ADF30E832E832070B1D6E070E2E
:101240001D6425EF09F027EF09F07EEF09F0000E8D
:10125000226E94EF09F01C50D96EDA6ADF30E83262
:10126000E832070B1D6E010E1E6E1D2A3AEF09F0C3
:10127000D8901E361D2E38EF09F01E50FF0A1F6E43
:101280001C50D96EDA6ADF50070B020DF350B00F15
:10129000D96EDA6ADECF20F0DDCF21F020C0D9FF91
:1012A00021C0DAFF1F50DF1694EF09F01C50D96EF1
:1012B000DA6ADF30E832E832070B1D6E010E1E6E6F
:1012C0001D2A65EF09F0D8901E361D2E63EF09F038
:1012D0001C50D96EDA6ADF50070B020DF350B00FC5
:1012E000D96EDA6ADECF1FF0DDCF20F01FC0D9FF44
:1012F00020C0DAFF1E50DF1294EF09F01C50D96EA7
:10130000DA6ADFBC86EF09F089EF09F0010E8AEF97
:1013100009F0000E000AD8B42BEF09F0010AD8B486
:1013200056EF09F027EF09F022501200010E206E4F
:10133000000E216E000E8C6E20500F0B8C6E8350B1
:10134000F00B1F6EF8EF09F02150040DF350210F40
:101350001D6E1DC0F6FF100EF76EF86A1C50D96E98
:10136000DA6A0800F5CFDFFF0BEF0AF02150040D19
:10137000F3CF1DF0010E1D261D50210F1E6E1EC045
:10138000F6FF100EF76EF86A1C50D96EDA6A080084
:10139000F5CFDFFF0BEF0AF02150040DF3CF1DF066
:1013A000020E1D261D50210F1E6E1EC0F6FF100ED0
:1013B000F76EF86A1C50D96EDA6A0800F5CFDFFFC5
:1013C0000BEF0AF02150040DF3CF1DF0030E1D2684
:1013D0001D50210F1E6E1EC0F6FF100EF76EF86A2C
:1013E0001C50D96EDA6A0800F5CFDFFF0BEF0AF068
:1013F0001F50100AD8B4A4EF09F0300AD8B4B6EFE1
:1014000009F0600AD8B4CCEF09F0C00AD8B4E2EF12
:1014100009F00BEF0AF020502024206E340E1D6ED0
:10142000F20EE82EFED71D2EFCD7212A030E2164D2
:101430001CEF0AF01EEF0AF09AEF09F01200010EFD
:10144000236E1C50D8B427EF0AF029EF0AF039EFC9
:101450000AF01C50D96EDA6ADF30E832E832070B46
:101460001E6E070E1E6437EF0AF039EF0AF090EF98
:101470000AF0000E236EA5EF0AF01C50D96EDA6A4E
:10148000DF30E832E832070B1E6E010E1F6E1E2A97
:101490004CEF0AF0D8901F361E2E4AEF0AF01F506C
:1014A000FF0A206E1C50D96EDA6ADF50070B020D5E
:1014B000F350A60FD96EDA6ADECF21F0DDCF22F02D
:1014C00021C0D9FF22C0DAFF2050DF16A5EF0AF0B5
:1014D0001C50D96EDA6ADF30E832E832070B1E6E34
:1014E000010E1F6E1E2A77EF0AF0D8901F361E2EAF
:1014F00075EF0AF01C50D96EDA6ADF50070B020D47
:10150000F350A60FD96EDA6ADECF20F0DDCF21F0DE
:1015100020C0D9FF21C0DAFF1F50DF12A5EF0AF06B
:101520001D501E6E1F6A1F50000AD8B49AEF0AF0B1
:1015300039EF0AF01E50000AD8B43DEF0AF0010A54
:10154000D8B468EF0AF039EF0AF0235012007CECAF
:1015500012F0F28EF28CF28CBA0E2C6E21EC0BF0A3
:10156000586EBA0E266E0C0E276E0DEC0EF0586EED
:10157000F6EC12F09E0ECCEC12F0546E550E356E59
:101580005450A8EC10F0586E240E5460CAEF0AF0C4
:10159000CCEF0AF0DDEF0AF0BA0E306E010E316EBC
:1015A000080E326E600E336E3350D8A4100E346EB7
:1015B0000FEC11F0586EECEF0AF0BA0E306E010E1F
:1015C000316E080E326E550E336E3350D8A4100EA5
:1015D000346E0FEC11F0586EBA0E306E020E316E92
:1015E000080E326E6B0E336E3350D8A4100E346E6C
:1015F0000FEC11F0586EBA0E306E020E316E0E0EF8
:10160000326E550E336E346A0FEC11F0586E20ECCA
:1016100010F020EE84F0050EEBCFDBFFE806FCE2D5
:1016200098EC0BF0000E256E54C026F0080EF1EC7D
:101630000EF0590E1C6E96EC09F0BAEF0AF05BEF53
:1016400000F0000E2E6E2C50D8A429EF0BF02BEFDB
:101650000BF02FEF0BF0000E2F6E96EF0BF02CC05F
:1016600024F0F1EC0FF02F6E2C28246EF1EC0FF02B
:101670002F6E000E2E6E2C502E24020F246EF1ECD5
:101680000FF02E2A070E2E6448EF0BF04AEF0BF0F6
:101690003BEF0BF0680E2D6EE40EE82EFED72D2EDC
:1016A000FCD700F000F02CC026F0380E276E0DECB1
:1016B0000EF01A0E2D6EF80EE82EFED72D2EFCD74A
:1016C00000F000F02CC026F0380E276E0DEC0EF066
:1016D000C80EE82EFED72CC026F0380E276E0DEC73
:1016E0000EF02CC026F0010E276E0DEC0EF02CC073
:1016F00026F0020E276E0DEC0EF02CC026F0060E22
:10170000276E0DEC0EF02CC026F00C0E276E0DECA3
:101710000EF02CC026F0380E276E0DEC0EF02CC00B
:1017200026F0800E276E0DEC0EF02F6E2F5012005B
:101730003D380F0B300F00018A6F3D500F0B300FFB
:101740008B6F2D0E8C6F3C380F0B300F8D6F3C5014
:101750000F0B300F8E6F2D0E8F6F3B380F0B300F2E
:10176000906F3B500F0B300F916F0D0E926F38380A
:101770000F0B300F936F38500F0B300F946F2D0EEF
:10178000956F39380F0B300F966F39500F0B300FA4
:10179000976F2D0E986F3A380F0B300F996F3A50A4
:1017A0000F0B300F9A6F0D0E9B6F720E1D6E1D503A
:1017B000D8A4100E1E6E000E206E060E1F6E7BEC5F
:1017C00010F0930E1D6E1E6A000E206E090E1F6E25
:1017D0007BEC10F0790E1D6E1D50D8A4100E1E6EFD
:1017E000000E206E060E1F6E7BEC10F08A0E1D6E32
:1017F0001E6A000E206E090E1F6E7BEC10F03B0E71
:101800001D6E1D50D8A4100E1E6E000E206E190EF7
:101810001F6E7BEC10F01200C2EC12F00009D8B47D
:1018200014EF0CF016EF0CF051EF0CF024EF0CF06D
:1018300030EC13F06DEF0CF02CEC13F06DEF0CF0BE
:1018400024EC13F06DEF0CF072C00AF073C00BF0D3
:1018500002D835EF0CF00500FA6E00016651FD6EFE
:101860006751FE6EFF6AFA5012000D6E0E6A0E503E
:10187000000AD8B43EEF0CF020EF0CF00D50010A36
:10188000D8B420EF0CF0030AD8B418EF0CF0010A1A
:10189000D8B41CEF0CF0070AD8B420EF0CF020EFFE
:1018A0000CF0000183917DC0D9FF7EC0DAFF7D4B33
:1018B0007E2BDF5034EC13F000017F07D8A08007A7
:1018C0007F518011D8A467EF0CF069EF0CF06CEF3A
:1018D0000CF0060E6DEF0CF0030E120054EC13F03A
:1018E0007DC0D9FF7EC0DAFFDF6E00017D4B7E2B0D
:1018F0007F07D8A080077F518011D8B482EF0CF009
:1019000084EF0CF089EF0CF03EEC13F0050EC0EF05
:101910000CF0838794EF0CF018EC13F0C0EF0CF090
:101920001CEC13F0C0EF0CF06CC00AF06DC00BF0B3
:1019300002D8A4EF0CF00500FA6E6051FD6E615103
:10194000FE6EFF6AFA5012000D6E0E6A0E50000A0B
:10195000D8B4ADEF0CF090EF0CF00D50010AD8B4F4
:1019600090EF0CF0030AD8B48CEF0CF0010AD8B455
:101970008CEF0CF0070AD8B490EF0CF090EF0CF05D
:1019800012001E6E010E1F6E000183B5CAEF0CF02F
:10199000CCEF0CF00EEF0DF01EC07CF0839383852E
:1019A00083910E0E816F010E7B6FF40E7A6F838729
:1019B000B40E606F260E616F000E6C6F000E6D6FBF
:1019C000B40E626F260E636F000E6E6F000E6F6FA7
:1019D000B40E646F260E656F000E706F000E716F8F
:1019E000B40E666F260E676F000E726F000E736F77
:1019F000B00E686F260E696F000E746F000E756F63
:101A0000760E1C6E260E1D6E0FEC13F04EEC13F0CE
:101A10004FEC12F046EC13F0000E1F6E1F50120038
:101A2000010E2F6E2E063DEF0DF02CC026F02E502D
:101A3000800F276E0DEC0EF02F6E50EF0DF02CC0C6
:101A400026F02E50C00F276E0DEC0EF02F6E50EFCB
:101A50000DF02CC026F02E50940F276E0DEC0EF0DA
:101A60002F6E50EF0DF02CC026F02E50D40F276EA5
:101A70000DEC0EF02F6E50EF0DF02D50010AD8B482
:101A800015EF0DF0030AD8B41FEF0DF0010AD8B41A
:101A900029EF0DF0070AD8B433EF0DF050EF0DF039
:101AA0002F501200010E2F6E2C50D8A45AEF0DF0BB
:101AB0005CEF0DF079EF0DF0000E2F6E92EF0DF050
:101AC0002CC026F02DC0F6FF2EC0F7FF000EF86EDA
:101AD0000F0EF76403D00800F55005D0F6CFE9FFEC
:101AE000F7CFEAFFEF50276ED2EC0DF02F6E2D4AA4
:101AF0002E2A2DC0F6FF2EC0F7FF000EF86E0F0E37
:101B0000F76403D00800F55005D0F6CFE9FFF7CF12
:101B1000EAFFEF500009D8A490EF0DF092EF0DF01E
:101B200060EF0DF02F50120000018387A5EF0DF03C
:101B300028EC13F0D1EF0DF052EC13F0030ED1EFBF
:101B40000DF024EC13F0D1EF0DF06CC00AF06DC075
:101B50000BF002D8B5EF0DF00500FA6E6051FD6E86
:101B60006151FE6EFF6AFA5012000D6E0E6A0E5041
:101B7000000AD8B4BEEF0DF0A1EF0DF00D50010A30
:101B8000D8B4A1EF0DF0030AD8B498EF0DF0010A14
:101B9000D8B498EF0DF0070AD8B49CEF0DF0A1EF80
:101BA0000DF01200000E2B6E2650D8A4DAEF0DF0C7
:101BB000DCEF0DF0E0EF0DF0000E2A6E0BEF0EF0F3
:101BC00026C01CF0010E1D6E1FEC0AF0000E2B6EDD
:101BD00026502B24020F1C6E2BC028F027C029F0A2
:101BE000282AF5EF0DF0D8902932282EF3EF0DF0CA
:101BF0002950010B1D6E1FEC0AF02B2A070E2B64D7
:101C000004EF0EF006EF0EF0E8EF0DF026C024F022
:101C100017EC12F02A6E2A501200000E2B6E26507E
:101C2000D8A415EF0EF017EF0EF01BEF0EF0000E1C
:101C30002A6E46EF0EF026C01CF0000E1D6E1FEC43
:101C40000AF0000E2B6E26502B24020F1C6E2BC0A8
:101C500028F027C029F0282A30EF0EF0D89029323A
:101C6000282E2EEF0EF02950010B1D6E1FEC0AF0EE
:101C70002B2A070E2B643FEF0EF041EF0EF023EFFF
:101C80000EF026C024F017EC12F02A6E2A50120033
:101C9000000E216E000E206E1E501F10D8B453EFA0
:101CA0000EF055EF0EF07DEF0EF0010E226E5DEF9F
:101CB0000EF0D8901E361F36222A1FAE62EF0EF0AD
:101CC00064EF0EF059EF0EF0D890203621361E50FA
:101CD0001C5C1F501D58D8A070EF0EF072EF0EF074
:101CE00077EF0EF01E501C5E1F501D5A2080D890BA
:101CF0001F321E32222E64EF0EF020C01CF021C0D5
:101D00001DF01200266E000E276E2650C1EC0CF05E
:101D10000009D8B48EEF0EF090EF0EF085EF0EF0C4
:101D2000AE0E216E230E226E270E236E246A89ECDE
:101D300012F0250E1C6E1D6A000E1F6E010E1E6E27
:101D40002BEC12F0000E216E000E226E000E236EA0
:101D5000000E246E95EC12F014EC13F095EC11F0DB
:101D6000E806D8B4B6EF0EF0B8EF0EF0AEEF0EF016
:101D70002750120050EC13F0000183A1C2EF0EF0C7
:101D8000C4EF0EF0D1EF0EF0C2EC12F00009D8B49F
:101D9000CCEF0EF0CEEF0EF0D1EF0EF00F0E0001F3
:101DA000816F00018151020DF350010F0F6E0FC0C2
:101DB000F6FF100EF76EF86A0900F5CF10F0090073
:101DC000F5CF11F002D8EEEF0EF00500FA6E1050CC
:101DD000FD6E1150FE6EFF6AFA5012000001816F15
:101DE0001200276E2750C1EC0CF00009D8B4FBEFAD
:101DF0000EF0FDEF0EF0F2EF0EF0560E216E230EF8
:101E0000226E260E236E246A89EC12F0250E1C6EBB
:101E10001D6A000E1F6E010E1E6E2BEC12F0000EDE
:101E2000216E000E226E000E236E000E246E95ECC5
:101E300012F014EC13F095EC11F0E806D8B423EF8F
:101E40000FF025EF0FF01BEF0FF01200206E1C506B
:101E50001D10D8B42EEF0FF030EF0FF046EF0FF05B
:101E60002050020DF350600FD96EDA6A1CC0DEFFFD
:101E70001DC0DDFF2050020DF3506C0FD96EDA6AE1
:101E80001EC0DEFF1FC0DDFF58EF0FF02050020D17
:101E9000F350600FD96EDA6AB40EDE6E260EDD6E78
:101EA0002050020DF3506C0FD96EDA6ADE6ADD6ADB
:101EB000120000018391020E826F67EF0FF028EC91
:101EC00013F08BEF0FF024EC13F08BEF0FF070C0DA
:101ED0000AF071C00BF002D877EF0FF00500FA6E30
:101EE0006451FD6E6551FE6EFF6AFA5012000D6E70
:101EF0000E6A0E50000AD8B480EF0FF063EF0FF0B7
:101F00000D50020AD8B45FEF0FF0010AD8B45FEFAA
:101F10000FF063EF0FF01200056E01500210D8B4FD
:101F200094EF0FF096EF0FF0ACEF0FF00550020DAD
:101F3000F350600FD96EDA6A01C0DEFF02C0DDFF28
:101F40000550020DF3506C0FD96EDA6A03C0DEFF44
:101F500004C0DDFFBEEF0FF00550020DF350600F1F
:101F6000D96EDA6AB40EDE6E260EDD6E0550020DF5
:101F7000F3506C0FD96EDA6ADE6ADD6A1200255002
:101F80002610D8B4C6EF0FF0C8EF0FF0ECEF0FF04B
:101F9000010E276ED0EF0FF0D89025362636272A6F
:101FA00026AED5EF0FF0D7EF0FF0CCEF0FF02550A6
:101FB000235C26502458D8A0E0EF0FF0E2EF0FF09A
:101FC000E6EF0FF02550235E2650245AD890263293
:101FD0002532272ED7EF0FF023C023F024C024F0A2
:101FE00012002450D8B4F7EF0FF0F9EF0FF009EF1B
:101FF00010F02450D96EDA6ADF30E832E832070B8D
:10200000256E070E256407EF10F009EF10F00DEFB5
:1020100010F0000E266E1EEF10F024C01CF00DEC28
:1020200009F0266E24C01CF02450D96EDA6A000E26
:10203000DFBE010E1D6E1FEC0AF0266E2650120048
:10204000000E256ED00E82EC0EF03A6E010E256E5B
:10205000D00E82EC0EF0396E020E256ED00E82ECA0
:102060000EF0386E040E256ED00E82EC0EF03D6E32
:10207000050E256ED00E82EC0EF03C6E060E256E1F
:10208000D00E82EC0EF03B6E20EE38F000EE28F021
:10209000050EDBCFEBFFE806FCE21200060EF66E43
:1020A000240EF76E000EF86E00EE9CF010EE28F095
:1020B0000900F5CFEEFFE550E150FAE1C00EF66EF3
:1020C000260EF76E000EF86E0900F5CF58F00900E5
:1020D000F5CF59F000EE60F03C0EEE6AE806FDE147
:1020E00000EE38F0200EEE6AE806FDE15A905A92B2
:1020F0000001A7EF0AF0000E246E000E236E9CEF85
:1021000010F023501D24216E24501E20226E21C069
:10211000F6FF22C0F7FF000EF86E0F0EF76403D033
:102120000800F55005D0F6CFE9FFF7CFEAFFEF50F2
:10213000ADEC12F0234A242A1F50235C205024586F
:10214000D8A0A5EF10F0A7EF10F081EF10F012006B
:10215000366E010E376E3550D8A4B1EF10F0B3EFE4
:1021600010F0B7EF10F0000E376ECCEF10F035C066
:102170001CF0000E1E6E000E1D6E000E206E040E72
:102180001F6E65EC11F035C028F0800E296E36C048
:102190002AF02B6A42EC08F03750120020EE02F0D1
:1021A0000A50D9260B50DA22DF500C6E0CC001F019
:1021B000026A0AC0D9FF0BC0DAFFDECF03F0DDCF21
:1021C00004F03DEC12F0000E066E000E076E000EDD
:1021D000086E000E096EA1EC12F0020E12001C6EC9
:1021E000010E1D6E000183B3F8EF10F0FAEF10F04E
:1021F0000DEF11F08383000E1D6E1C50D8B403EF59
:1022000011F005EF11F009EF11F0010E816F0BEFE6
:1022100011F0020E816F48EC13F01D501200305087
:10222000D8A415EF11F017EF11F01BEF11F0000E0D
:10223000356E2CEF11F030C02CF031C02DF032C0D3
:102240002EF010EC0DF030C02CF033C02DF034C067
:102250002EF052EC0DF0356E35501200D08EA28665
:102260009F86F292F18C000E1C6E000E1D6E05EC26
:1022700013F0F090F18A000E1C6E000E1D6E00EC43
:1022800013F0F092F188000E1C6E000E1D6EFBEC38
:1022900012F01200480EB86E900EAB6E260EAC6EA9
:1022A000A00EAF6E010EB06E000E1C6E000E1D6E05
:1022B0006EEC12F0000E1C6E000E1D6E60EC12F043
:1022C000000E496E000E486E12001CC021F06FEF28
:1022D00011F02150D96EDA6A1DC0DFFF212A1F06D6
:1022E000D8A020061F2806E12028D8A47AEF11F0F4
:1022F0007CEF11F069EF11F01200000E896E000EF4
:102300008A6E180E8B6E000E8C6E000E8D6E9268AB
:102310009368BF0E946E9568070E966E1F0E7F6EC3
:102320007C68000E7D6EF2861200010E1C6E0001AC
:1023300083B39DEF11F09FEF11F0A9EF11F083959A
:102340007C694EEC13F04AEC13F04CEC13F082C0B5
:102350001CF01C5012000AC001F00BC002F0000E6D
:10236000046E010E036E3DEC12F0000E066E000EC0
:10237000076E000E086E000E096EA1EC12F0040E3E
:1023800012000AC001F00BC002F0000E046E020E33
:10239000036E3DEC12F0000E066E000E076E000E8E
:1023A000086E000E096EA1EC12F0020E12000AC0B7
:1023B00001F00BC002F0000E046E010E036E3DEC46
:1023C00012F0000E066E000E076E000E086E000E74
:1023D000096EA1EC12F0020E12000AC001F00BC04F
:1023E00002F0000E046E020E036E3DEC12F0000EC1
:1023F000066E000E076E000E086E000E096EA1EC50
:1024000012F0040E1200800F810F820F830F840FD1
:10241000890F8A0F8B0F8C0F8D0F920F930F940FD4
:10242000950F960F020A000810182028122A242857
:102430001C6E010E1D6E1FEC0AF0060EE82EFED774
:1024400000F000F024281C6E000E1D6E1FEC0AF038
:10245000256E25501200000183A731EF12F033EFF3
:1024600012F03CEF12F01CC07DF01DC07EF01EC0CB
:102470007FF01FC080F083971200000183A743EF15
:1024800012F045EF12F04EEF12F001C07DF002C0E5
:102490007EF003C07FF004C080F083971200C6BABC
:1024A00054EF12F056EF12F05FEF12F0800EC76E8D
:1024B000080EC66E000EC56E270EC86EC68A1200C4
:1024C0001C501D10D8B467EF12F069EF12F06DEFD9
:1024D00012F01CC044F01DC045F012001C501D102D
:1024E000D8B475EF12F077EF12F07BEF12F01CC04A
:1024F00046F01DC047F012000AEC13F07DEC11F01D
:102500004AEC11F0B8EC12F038EC13F02EEC11F0AC
:10251000120021C01CF022C01DF023C01EF024C0F8
:102520001FF0000E26EC0FF0120021C01CF022C09C
:102530001DF023C01EF024C01FF0020E26EC0FF089
:10254000120006C001F007C002F008C003F009C085
:1025500004F0000E8CEC0FF012001C6E9EA8B3EF7E
:1025600012F0B5EF12F0AEEF12F01CC0ADFF12008A
:10257000800EC76E080EC66E000EC56E270EC86EA2
:10258000C69A1200C5BCC7EF12F0CAEF12F0010ED6
:10259000CBEF12F0000E1200286E000E256E2850B0
:1025A00082EC0EF0296E29501200000183817C51CB
:1025B000010934EC13F0050E1200000183817C51F7
:1025C00034EC13F0030E120000018393000E826FAF
:1025D0000E0E12000001839156EC13F0040E12004F
:1025E00000018393000E826F0E0E1200F00E956EA6
:1025F000000E8C6E12001CC04AF01DC04BF0120081
:102600001CC04CF01DC04DF012001CC04EF01DC08F
:102610004FF01200700ED36E000E9B6E12001CC0A5
:1026200050F01DC051F01200000EEFEC10F012003F
:1026300041EC13F0090E120041EC13F00A0E1200E7
:102640003EEC13F0050E12005CEC13F0000E1200CD
:102650005EEC13F0010E12005EEC13F0020E12009D
:102660005EEC13F0010E1200016E01C0C9FF1200F2
:1026700044EC13F01200BAEC0EF01200C59AC588B3
:102680001200C58AC5881200A69612009D86120007
:10269000C58012009D961200C69A12009E961200E6
:1026A0009E9612009E861200C9501200C586120026
:1026B000050E1200010E1200C5841200C582120020
:0226C000010A0D
:020000040030CA
:0E000000FF021F1EFF8985FF0FC00FE00F409B
:00000001FF
